:020000041000EA
:1000000000B5324B212058609868022188439860DF
:10001000D860186158612E4B002199600221596106
:100020000121F02299502B49196001219960352056
:1000300000F044F80222904214D00621196600F024
:1000400034F8196E01211966002018661A6600F04E
:100050002CF8196E196E196E052000F02FF8012189
:100060000842F9D1002199601B49196000215960AB
:100070001A491B48016001219960EB211966A021F2
:10008000196600F012F800219960164914480160C1
:100090000121996001BC002800D000471248134993
:1000A000086003C880F30888084703B5996A0420EC
:1000B0000142FBD001200142F8D103BD02B5186610
:1000C0001866FFF7F2FF186E186E02BD00000240BE
:1000D000000000180000070000035F00212200005C
:1000E000F4000018222000A00001001008ED00E03C
:1000F00000000000000000000000000074B24E7A12
:1001000000200420F7010010C3010010C5010010F9
:10011000C1010010C1010010C1010010C101001097
:10012000C1010010C1010010C1010010C701001081
:10013000C1010010C1010010C9010010CB01001065
:10014000CD010010CD010010CD010010CD01001037
:10015000CD010010CD010010CD010010CD01001027
:10016000CD010010CD010010CD010010CD01001017
:10017000CD010010CD010010CD010010CD01001007
:10018000CD010010CD010010CD010010CD010010F7
:10019000CD010010CD010010CD010010CD010010E7
:1001A000CD010010CD010010CD010010CD010010D7
:1001B000CD010010CD010010CD010010CD010010C7
:1001C00000BE00BE00BE00BE00BE00BE00F04BF888
:1001D000103800BEF2EB8871104800104048001043
:1001E0003402001090A31AE700202149086006C8D5
:1001F00081F3088810471F48006800282FD10DA4FC
:100200000ECC002902D000F012F8F9E71A491B4A77
:10021000002000E001C19142FCD1194988471949E9
:1002200088471949884700BEFDE701C901C29A42C3
:10023000FBD3704740480010C00000204C03002052
:10024000CC4A00100000042000000420CC4A00101A
:1002500000100420001004200000000070470B482C
:1002600001F03CFD0047EFF30580C0B2704700008D
:1002700008ED00E0000000D050030020181200201C
:10028000191400100D03001005150010575600003A
:1002900006005250ABB36053384500100600525070
:1002A000861C030248450010060052505422A29DAD
:1002B0005045001005005250DE65F468CC4A00102D
:1002C000F8B5C04610B5064C2378002B07D1054B76
:1002D000002B02D0044800E000BF0123237010BDB2
:1002E000580600200000000070440010044B10B5B8
:1002F000002B03D00349044800E000BF10BDC046F6
:10030000000000005C0600207044001070B5D0248E
:10031000802501F021FF192000F02CF82406AD04FF
:10032000074E6562FA20A56100F06AFC3000656145
:1003300001F0D6FEFA20800000F062FCF2E7C04631
:1003400070440010094A830094464022634410B56B
:100350001C68C0006240C024144080225201134334
:100360001C60034B9C466044416010BD04C00140CA
:10037000004001400123D022834012069362936122
:10038000094A83009446402263441968C0004A40E9
:10039000C02111408022520113431960034B9C4637
:1003A000052360444360704704C0014000400140A1
:1003B000F8B5CE464746914680B5EFF3108C72B63D
:1003C000104D2B68002BFCD0BFF35F8FCB08C45CB3
:1003D000C7180720260001230840C6401A003240F3
:1003E00033420BD1834023433B70BFF35F8F2A60BE
:1003F0008CF31088C0BCB946B046F8BD484601F041
:1004000083F8C0462C0100D0F8B54746CE46884652
:1004100080B5EFF3108C72B6214D2C68002CFCD007
:10042000BFF35F8F9A422DD8D408055D07190724C2
:100430002E001440E640F1071ED5072189460639F3
:1004400008E0D408055D07194C462E001440E6402C
:10045000314211D001329342F3D201204042BFF326
:100460005F8F00220E4B1A608CF31088002811DB7E
:10047000C0BCB946B046F8BD0123A3401D431000DF
:100480003D70ECE7BFF35F8F00232B608CF3108887
:10049000012040424346002BEAD0089801F034F88E
:1004A0002C0100D00021044B044ABFF35F8F02C32C
:1004B0009342FAD17047C046000100D0800100D0BD
:1004C000044A1078431CDBB2172B00D91023137099
:1004D0007047C0464802002000B5054B83B00100BC
:1004E000009318221F230348FFF78EFF03B000BDBF
:1004F000C0440010B40A0020024B18688007C00FE7
:100500007047C04600C00640F8B5040006200D0044
:1005100001F088F9002844D02A4B2B49E2185342B5
:100520005A418023DB039C469205284B62441A60A3
:10053000274B1A6010008B689843FBD1214B802118
:10054000E3185A425341234A5B004900995206205E
:1005500001F068F92900C00001F0F2FBC30921D1C4
:1005600040270121260080256162A36200232C36EA
:10057000AD0135432B60062001F054F939008000AD
:1005800001F0DEFB6023E26A53406E221A408023B2
:100590005B0133431A60104B236310232B600D3B28
:1005A000A364F8BD0D4A934203D900230C4F0D49B3
:1005B000D8E77F221040013040089F0119003F1802
:1005C0000300CFE70080FCBF00C0004000E0004017
:1005D00000F000400812002001030000FEFF0000B0
:1005E000C0FF3F00FFFF000083680B4810B5844642
:1005F00061446244090112019A18591854684B6801
:1006000001209C4201D802D00020C0B210BD126867
:100610000B689A42F9D8F7E7FFFFFF0F40BF0020B1
:1006200000217047F8B557464E464546DE46E0B5D0
:1006300099460CAB1C780DAB1B78060090469A4689
:100640000768002C11D1BC7B002C42D065003B68B0
:100650002D19033D59194B78BB73002B00D1FB7347
:1006600000238B704B700B7004E065003B682D1904
:10067000033D5919B2682A4B94464246E3181B01C0
:1006800063441A604A465A600A9A9A600B9ADA6082
:1006900000238B704B700B707B7B9B46002B2BD009
:1006A00022005946B8687B6898473A68002816D0F7
:1006B0005B4658465B005B445519033BA870D11854
:1006C000D35C002B00D06B705B460C707B73A34532
:1006D00013D0F0BCBB46B246A946A046F8BD5B4667
:1006E0005B005B44033BD3189C705119525D002A98
:1006F00000D05A705B460B707C7342464B46307D8F
:1007000000F008FC051E06D05346002B03D1210043
:10071000306800F043FE0E9B002BDAD01D70D8E746
:10072000FFFFFF0FF0B5DE464E4657464546002315
:10073000E0B58DB00A936B4B8200D3580B9099466D
:1007400000239B464B46079300F084FB079C060062
:100750000F006268EFF3108572B61368002BFCD0AF
:1007600022000794BFF35F8F2468637B9946002BB8
:1007700067D092685C4B90464B441B0198444346BB
:100780001A685B6810001900801BB94100295FDD01
:100790000B9800F0BFFB00230026984600279A46DE
:1007A000079C6368BFF35F8F5A461A6085F3108811
:1007B0005346002B08D10028C6D10DB0F0BCBB4673
:1007C000B246A946A046F0BD0A9B414618024B46D8
:1007D0001843D047089009916268EFF3108572B60C
:1007E0001368002BFCD00794BFF35F8F0899099A18
:1007F000002A48DB114303D0079B1B69002B5DD106
:10080000079B1B68D97B002907D04A00521819683A
:100810008C4649466244033A51704A46DA734B4665
:10082000079A013BD168CA5C0132CA545B46079AF9
:1008300013615368BFF35F8F5A461A6085F31088BF
:1008400082E700230026984600279A460020A7E763
:10085000002901D100289BD10021200000F020FDBB
:1008600043461E685F689B68079A9A464346DB6862
:100870009846D3684B44013B1B780A931B02034301
:10088000136100208CE72369002BB9D033003C00B2
:100890005B1A94411A002300A74219D89F421BD02B
:1008A0005946049101210391494602914146019123
:1008B000514607980091FFF7B5FEB7E700F0CAFA76
:1008C000089A099B06000F0092197B419942E5D9CD
:1008D00001225242D317E3E79642E1D90122524264
:1008E000D317DDE7DC110020FFFFFF0FF8B55746F7
:1008F0004E464546DE46E0B5404D81468A466A682A
:10090000EFF3108872B61368002BFCD0BFF35F8F33
:100910002E68B47B002C39D0670033683F19033F41
:10092000DB195A78B273002A00D1F273A968344AED
:100930008C464946A218120162441160514651602A
:10094000304991600021D160997059701970737BA2
:100950009B46002B35D022001900B0687368984779
:100960003268002820D05B4658465B005B44D719AC
:10097000033BB870D118D35C002B00D07B705B4672
:100980000C7073735C451DD0002626E06B68BFF3C6
:100990005F8F1C6088F3108801204042F0BCBB468A
:1009A000B246A946A046F8BD5B465B005B44033BEC
:1009B000D3189C70D119D25D002A00D05A705B46C2
:1009C0000B7074734A465346287D00F0A3FA061E46
:1009D000DAD02100286800F0E1FCEB681B19013B2C
:1009E00019786B68BFF35F8F00221A6088F3108854
:1009F0000020002ED2D108022043CFE74C02002075
:100A0000FFFFFF0F1D06001010B5104C6368002B90
:100A100000D010BD23000E4A1021206800F05EFBBC
:100A2000032000F00BFA032000F0E4FA0320094948
:100A300000F02AFAFFF744FD074B9C46032360446D
:100A40002375064B80006060DC60E2E74C0200200A
:100A5000E90500102507001040000034DC110020DB
:100A6000004870474C020020F0B557464E464546B8
:100A7000DE46E0B585B0019310AB1B78060003930A
:100A800000239A46984600927268EFF3108972B676
:100A90001368002BFCD0BFF35F8F3568AC7B002C54
:100AA00049D067002B683F19033FDB195A78AA73B6
:100AB000002A00D1EA73B168504A8C460098019927
:100AC000A21812016244106051600E9991600F9952
:100AD000D16042469A705A701A706B7B9B46002B0D
:100AE00045D022001900A8686B6898472A6800283A
:100AF00030D05B4658465B005B44D719033BB87067
:100B0000D118D35C002B00D07B705B460C706B73EC
:100B10005C452DD0F3681B19013B18787368BFF34F
:100B20005F8F42461A6089F310885346002B2CD100
:100B30000002204307E07368BFF35F8F1C6089F3F6
:100B400010880120404205B0F0BCBB46B246A94621
:100B5000A046F0BD5B465B005B44033BD3189C7032
:100B6000D119D25D002A00D05A705B460B706C73AD
:100B7000307D009A019B00F0CDF982460028C9D053
:100B80002100306800F00AFCC4E7039B002B32D040
:100B90000E9B00200F999847030004000D000B43A3
:100BA00029D000290DDA0098019902000B00121BD0
:100BB000AB41994215D81AD000920193039B9A46F3
:100BC00062E700F047F902000B00A4185D41200025
:100BD000290000900191AB4203D8EFD100998A42DD
:100BE000ECD901235B42DC1700930194E6E70099FE
:100BF0009142E1D9F5E70020A5E7C046FFFFFF0FCE
:100C0000F8B5040000F026F9FA2206000F002000D3
:100C100000230021920001F013F9801979410400AA
:100C20000D008F421AD817D006267642F7173619CC
:100C30006F41AF4235D90026002700F00BF9320092
:100C40003B00121A8B41002B16DC002B26D029000A
:100C5000200000F009F9F8BD8642E5D90726764262
:100C6000F71700F0F7F832003B00121A8B4101240D
:100C70006442E517002BE8DD30003900FFF736FE4F
:100C80000028E4DB3900094A536A994204D8906A83
:100C90008642DCD99942DAD120BFF5E7002AD6D0C6
:100CA000EAE7AF42C9D1A642C5D8C6E70040054031
:100CB000F8B5CE46474680B506000C00FFF716FE95
:100CC00000280CDC2D4B0020596A8C4203D89B6A0B
:100CD0000130B34245D3C0BCB946B046F8BD20BFD1
:100CE000274D6A68EFF3108772B61368002BFCD0AB
:100CF000BFF35F8F2B68C1B29C465B7B8B4235D0C4
:100D0000FF2303405A009146624612689944904678
:100D10004A464244033A9278002A1DD0EA68000A03
:100D200090464344013B1B78C0B2834221D06B689C
:100D3000BFF35F8F00221A6087F310880F4A0020EC
:100D4000536A9C42C7D8926A0130B242C3D2E01AB9
:100D5000421E9041C0B2BEE72B699842E7D12A619A
:100D6000E5E7601A431E9841C0B2B4E7FF23034091
:100D7000D4E7604600F012FBD9E7C04600400540CA
:100D80004C020020F0B5D6464F464646C0B5EFF3BC
:100D900005833F22134018001038EFF3108C72B611
:100DA000204D2A68002AFCD0BFF35F8F012211007A
:100DB00081401D4C884661631C4917000E788A46A5
:100DC0003100C1400F400A4209D1BFF35F8F2F604D
:100DD0008CF31088E0BCBA46B146A846F0BD144971
:100DE0008200646A51588C420FD3124BD25843464A
:100DF0009E4353461E70BFF35F8F00232B608CF31E
:100E00001088002AE6D09047E4E70B4A9B00904602
:100E100043441A681A60BFF35F8F00232B608CF382
:100E20001088D7E7280100D00040054016120020A6
:100E3000F8110020A40A0020D03F054010B50100A1
:100E4000024A0348FFF7B4FA10BDC046DC44001064
:100E500013120020034B596A0A00986A596A8A42A1
:100E6000FAD1704700400540064A536A9942FCD8BF
:100E700007D1044B02E05A6A914202D19A6A824237
:100E8000F9D370470040054070B504000D00EFF342
:100E9000108672B61A4A1368002BFCD0BFF35F8F1E
:100EA000002D1BD0200000F06FFD164981420AD0B2
:100EB000200000F071FD0121200000F04BFD012316
:100EC000A340114A1360114BA400E550BFF35F8F9C
:100ED00000220B4B1A6086F3108870BD0B4BA200EA
:100EE000D5500122A2400A4920000B7893430B7091
:100EF000044900F07BFD0021200000F02BFDE5E718
:100F0000280100D0850D001038600540A40A00209B
:100F100016120020F0B54F46D6464646C0B507002B
:100F20002F4C616A0D00A66A616AA942FAD18B4210
:100F300008D805D00120E0BCBA46B146A846F0BDAD
:100F4000B242F7D9EFF3108A72B626480168002939
:100F5000FCD0BFF35F8F0125BD402349204C88465C
:100F6000097889462943C9B28C46414660460870D3
:100F7000391D1E48890065630A51B9000B50216A6A
:100F80000020294219D0616A0800A66A616A81427C
:100F9000FAD18B4219D801D1B24216D8CC451DD016
:100FA0000F4B1F201D625D6301230740BB40104AA9
:100FB0001E38136043464A461A70BFF35F8F002203
:100FC000084B1A608AF31088B5E70020BFF35F8FE3
:100FD0000022044B1A608AF31088ACE70120ECE78A
:100FE00000400540280100D016120020F811002012
:100FF00080E200E0EFF3108C72B60A490B68002B18
:10100000FCD0BFF35F8F01238340074A0748136278
:1010100002789A430270BFF35F8F00230B608CF35A
:1010200010887047280100D00040054016120020AB
:10103000024B9C46614489000160704740000034C7
:1010400010B50400FFF73CFA01002000FFF7F0FFA5
:10105000FF232371BFF35F8F10BDC04610B504009E
:101060000120FFF739FA01002000FFF7E1FFBFF38D
:101070005F8F10BD70B5050014001600002915D053
:101080000C00002A12D080686B68984729680028F5
:101090000ED073009B196200033B1219CB18033A60
:1010A0009C7088188A5C002A15D10670200070BDDB
:1010B00063001B197200033B9219CB18033A9E7010
:1010C00088188A5C002A02D104703400EEE75A7056
:1010D00004703400EAE75A700670E7E730B58360C1
:1010E0000023CCB243730133047342608373C4732F
:1010F0000D000068012C06D9421C0133DBB21370CD
:1011000003329C42F9D1FF2129404B00591800239A
:1011100040180338437030BDF8B5CE464746060048
:101120000C0080B5002907D04D0003686D18033D01
:101130005A195778002F04D12000C0BCB946B046D8
:10114000F8BD7900C919033988464344597889465E
:1011500000215970517073683A00210080689847E7
:101160003368002814D042469A18947059195B5D70
:10117000002B00D053700F70270049463000FFF756
:10118000CBFF390002003000FFF774FF0400D3E703
:10119000424641465D19AF709A185B5C002B00D047
:1011A0006B701470E9E7C046F0B557464546DE4619
:1011B0004E46E0B50D006B0001685B19DF1E0400B0
:1011C000C85D83B00192CA1900284CD043001B1897
:1011D000033BCB185E78B446002E16D1019E002E3C
:1011E0003ED0E67B002E04D073009B19CB18033B46
:1011F0005D70E57300282FD10023537003B0F0BC5D
:10120000BB46B246A946A046F0BD72006244033A0E
:1012100089184A78904600224A7091465A70010017
:1012200032002000FFF726FF43468246002B07D0FE
:101230005B0021684344033BCB185A78002A16D13F
:10124000424651462000FFF715FF2168019BCA194D
:10125000002BC6D10028CFD043001B18033BCB186E
:1012600000219970C8E7019B002BBAD1C4E7500058
:1012700080180338091848788346484648705870E3
:1012800041462000FFF7F6FE594680462000FFF752
:1012900043FF414602002000FFF7ECFE8046CFE707
:1012A000F0B557464546DE464E46E0B583B001915F
:1012B000457B04006B0000685B19DF1EC15DC2192D
:1012C00000294ED04B005B18033BC3185E78B44630
:1012D000002E18D1019E002E40D0E67B002E04D0B7
:1012E00073009B19C318033B5D70E573002931D16E
:1012F000002328005370617303B0F0BCBB46B246B4
:10130000A946A046F0BD72006244033A80184278B4
:1013100090460022427091465A7020003200FFF73A
:10132000A9FE43468246002B07D05B002168434458
:10133000033BCB185A78002A17D142465146200069
:10134000FFF798FE019B01002068C219002BC4D151
:101350000029CDD04B005B18033BC31800209870C8
:10136000C6E7019B002BB8D1C2E7500080180338B4
:10137000091848788346484648705870414620000E
:10138000FFF778FE594680462000FFF7C5FE41462C
:1013900002002000FFF76EFE8046CEE770B5040025
:1013A00000292CD0437B8B422ED005684800401882
:1013B000033828188278002A21D053009B18033B59
:1013C000EA5CEE188A4202D11BE0002A08D05300E2
:1013D0009B18033BEB185A788A42F6D142785A7030
:1013E00000230122837043702000FFF7DDFE617B44
:1013F00002002000FFF73EFE6073012000E00020A5
:1014000070BD43783370EBE701221900FFF7CCFE83
:1014100060730120F4E7C046F8B52B4A2B4B2C49EA
:101420001A602C4A2C4B1A6014008B689C43FBD129
:101430002A4D2B4EB54208D2013E761BB60808CD88
:10144000984723000134B342F9D100F07BF8254AD4
:10145000214B1A601E4A9368DB43DB01DC09002B39
:10146000F9D14022204B214D214F9A675A671A67C4
:10147000DA66BD420BD20026013F7F1BFF08280021
:10148000FFF7DEFD083533000136BB42F7D1194EB8
:10149000194DC022A968300000F042FDAE60FFF790
:1014A00001F800F0D7FBFFF7AFFA144D144EB54228
:1014B00008D2013E761BB60808CD984723000134B8
:1014C0009E42F9D1F8BDC046BFCDFFFF00E000400D
:1014D00000C00040FE7F3C0000F0004038030020C8
:1014E00048030020FFFFFF0100F00140300300200F
:1014F000380300200000002000ED00E04803002039
:101500004C03002000BEFDE70FB400B5084883B0CF
:1015100000F0E6FD049B002B07D005A918000191FF
:1015200000F0BCFB034800F0DBFD00BEFDE7C04659
:10153000004500101045001010B50148FFF7E4FF0A
:101540001445001030B50C2083B000F071F9FEF79F
:10155000D3FF00280ED09A4B9A4A1A605A609A60BC
:10156000DA601A615A619A61DA611A62964A5A62BD
:1015700003B030BD954CA06700F0AEF90122944B4A
:101580001A60636C012BFCD10322924B1A608F4AC4
:10159000936B012BFCD1C0228F4B92011A608F4BB1
:1015A0008F491A6010008B689843031EFAD10224F9
:1015B00001218C4A8C480633009400F0A1F90523E0
:1015C0008A4A01218A48009400F09AF9894B5A68A6
:1015D000FF2A02D8802252005A608022784C7D4B2C
:1015E00021691201834D1A60002905D0606900F05D
:1015F000A7FB01300138FDD1E0217E4B02201A68A3
:101600001140802252012A43116019684840032189
:101610000140116004219A681142FCD0802280218F
:1016200092012A4309011160802252005A60724BD4
:101630002361724B5968FF2900D85A600321644A1C
:101640006E4B116002399A681142FCD0E0201A6892
:101650001040802252011A4310601868484003214C
:1016600001400220116065498A681042FCD0802246
:1016700092011343802212011A608022604B5200B3
:101680004A6063615F4B5968FF2900D85A60802225
:101690005D4BE16912015B4D1A60002905D060695C
:1016A00000F04EFB01300138FDD1E02255490B68B6
:1016B0001A4080235B012B431A60802380229B0108
:1016C0002B4312011A6080223E4B52004A60E361B4
:1016D0004E4B5968FF2900D85A6080224C4B216A32
:1016E00012014A4D1A60002905D0606900F028FBFC
:1016F00001300138FDD1E02244490B681A408023B3
:101700005B012B431A60802380229B012B43120133
:101710001A60802380225B004B602A4BD202236236
:101720003C4B5968914200D25A6080223A4B616A20
:101730001201384D1A60002905D0606900F000FBE5
:1017400001300138FDD1E02232490B681A40802374
:101750005B012B431A60802380229B012B431201E3
:101760001A608023DB024B60174B63622B4B5A6875
:10177000FF2A02D8802252005A608022284BA16999
:101780001201264D1A60002905D0606900F0D8FAD0
:1017900001300138FDD1E02220490B681A40802336
:1017A0005B012B431A60802380229B012B43120193
:1017B0001A6080235B004B60114BA361D8E6C046E2
:1017C000B80A0020006CDC021BB70000008000405B
:1017D0003CB0004030B0004000E0004000F000406D
:1017E00000C00040002F68590080024000389C1C57
:1017F00000C0024030800040001BB7003C80004029
:10180000405973075480004054B00040608000404D
:1018100060B000406C8000406CB0004048800040E8
:1018200048B00040014B8000C0587047B80A002003
:101830008023024A9B000343D36270470080054027
:1018400010B5140080221A4BD2051A6000282CD043
:101850000123184A1843184BDA61184A42401A62A9
:10186000596298628022124BD2051A601449154AB7
:101870001160E022D2041A60002C12D063011B1BFD
:101880009A008023121912015B049A4200D30E4A77
:101890000E4B1A60084B5A6080220D4BD2051A601D
:1018A00010BD0C4A094B1A60F4E7034BD861D9E725
:1018B00000B00540D3C007B0008005402D3FF84F71
:1018C000FCFF010008200140FFFFFF00D4110020B1
:1018D00000A00540A0860100AA23064A1B01136050
:1018E0002F230549D360054B19605368002BFCDAA0
:1018F0007047C0460040024000B0FA00006002405D
:10190000F8B51E0001235B4243600023040083609E
:1019100001600C20170000F013FA4101091A8D0133
:10192000691AC90009188901380000F009FAC021B4
:10193000231D890119432123A0600B602268002A1E
:10194000FCDA069B36041B031E430823E6600B608B
:10195000F8BDC04601238340002904D0034A136028
:10196000034A13607047034A1360FBE780E200E01C
:1019700000E100E080E100E001238340014A1360C0
:101980007047C04600E200E0024B10309B688000C8
:10199000C058704700ED00E070B50D00EFF3108601
:1019A00072B60F4A1368002BFCD0BFF35F8F0D4B4C
:1019B00010309B6884001B590B4A934203D09D4210
:1019C00001D0FFF7B9FD074B9B681D51BFF35F8F37
:1019D000BFF35F8F0022024B1A6086F3108870BD40
:1019E000240100D000ED00E0CD010010F0B5DE468E
:1019F00057464E464546E0B50C0083B0EFF3108ADB
:101A000072B65A4A1368002BFCD0BFF35F8F1022C6
:101A1000914681444A46564B96009B689D59554BCA
:101A200098469D4205D0A54216D0534FEB1B2F2B55
:101A300014D94F4B9B689D51BFF35F8FBFF35F8FEE
:101A400000224A4B1A608AF3108803B0F0BCBB46F0
:101A5000B246A946A046F0BD1D00EAE70123834037
:101A60009B465A46454B1B681A4000925A46444BC7
:101A70001A60BFF35F8FFEF7F6FB0190002803D0DA
:101A8000814501D0FFF758FD01232A009A43130036
:101A9000DB1B5B4141495943090D93689C4208D1C6
:101AA0005AE043001B189B00FB189868A04211D015
:101AB0001A00062010560028F3DA009B002B05D0F0
:101AC0005A46304B1A602D4B1A60B2E75A462C4BDF
:101AD0001A60AEE706201856002821DB42001118D4
:101AE00089007C188846A1689960E179D97106213E
:101AF0006156997100291FDBA488F91A6405241521
:101B000044440919E0240905490D24022143998020
:101B100012181D4B9200BF181A781870BA71CCE7D2
:101B2000019800280BD1FF30907118489080164A18
:101B3000107811709871C0E7BD210902E7E7144AD7
:101B40001449D21A083A5002400D014399801249B3
:101B500052080A43DA80B0E7062010561300002826
:101B6000BCDA019A002AEAD14546E0E7240100D018
:101B700000ED00E0CD0100107402002000E100E063
:101B800080E100E080E200E01412002000BDFFFFD1
:101B9000AE02002000F0FFFF00F8FFFFAAAA00003D
:101BA000F8B5012504000543FEF75DFBEFF3108C4B
:101BB00072B6214A1368002BFCD0BFF35F8F1F4E13
:101BC0002200B7681E49521A5241214B53431B0D44
:101BD0008200B8585BB2A8421CD006228A569A42AC
:101BE0001CD012228A569A4222D01E228A569A422B
:101BF00020D02A228A5603209A4210D0114A117806
:101C00001370A171BFF35F8F00220B4B1A608CF32E
:101C10001088F8BDB1680C488850EFE700204200FA
:101C2000121892008918FF228A71084A8A80E5E713
:101C30000120F4E70220F2E7240100D000ED00E0EB
:101C40007402002014120020CD01001000BDFFFF1F
:101C5000AAAA0000F0B500220324FF278026200056
:101C60003D00094B11009C461040C0008540A14337
:101C700061440B680132AB43350085402B430B6058
:101C8000202AECD1F0BDC04600E400E010B50028E9
:101C900000D110BD00F016FAFBE7C04610B5094AA6
:101CA0000300146884B0002C08D00122009106487B
:101CB000524203A9A047012004B010BD00F010FA61
:101CC0000020F9E7D01100208D1C001001480421EC
:101CD000014B1847C0020020FD1C0010142310B552
:101CE0000100188804331B88984710BD162310B5CF
:101CF0000100188802331B88984710BDF8B5474685
:101D0000CE4680B50F1E19D0142399460433040023
:101D10000025012698464B461888434621681B88B3
:101D2000984701C4431E9841013540420640AF42E6
:101D3000F1D13000C0BCB946B046F8BD0126F8E785
:101D4000134A936F9B0813D210665166002905D081
:101D5000FFE7FFE7FFE7516F106F704704B50028FA
:101D600001D00020C04302F063FB002104BDC04647
:101D7000936F5B08FDD3F0B5946ED56E576F166FF9
:101D8000FFF7E2FF9466D56657671667F0BD00005F
:101D9000000000D0132370B51D78012D10D00BDD8D
:101DA0001948FFF7A3FF194C01008022200000F022
:101DB000B7F8022D01D070BD144C154BA364FAE79F
:101DC000134B124C23606360A360E3602361636183
:101DD000A361E36123626362A362E36223636363DB
:101DE000A363E36323646364A364E36423656365BB
:101DF000A365E36523666366A366E366236763679B
:101E0000A367E367A364D6E75344000058040020A7
:101E1000151E001007B5604601880A0A0230DF2A45
:101E2000FAD1C9B2820804D3028840880004104362
:101E300000E00068014A5050039007BD580400209C
:101E400051434343C9188C46110C83B24B4310B421
:101E5000040C614392B280B2504362431C041B0CD9
:101E6000001910BC59411304120CC01851416144AF
:101E700070470000132310B512481C78FFF736FF97
:101E80000100012C0AD003DD80220F4800F048F841
:101E90000E48FFF723FF0E4B186010BD0A4C54226A
:101EA000200000F03DF80B4B6365A365E3652366F6
:101EB0006366A366E36623676367A367E3672362DA
:101EC000E361E5E753460000580500204C3300006D
:101ED000EC110020D91E001007B5604601880A0ADF
:101EE0000230DF2AFAD1C9B2820804D302884088BE
:101EF0000004104300E00068014A5050039007BD01
:101F00005805002001480421014B1847D002002049
:101F1000FD1C0010014B1B6818470000D002002078
:101F2000014B5B6818470000D0020020F0B5464620
:101F30004F46D6468046C0B50E00171E3FDD4B1EED
:101F40009946214B0125002400209A460DE04B467E
:101F50001B5D0D3B5A425341325DDBB20A2A0BD066
:101F60002B00013401359F421ADD002CEFD143468E
:101F7000325D1B7C0A2AF3D1002BF1D1A04204DA96
:101F80004346211A1B6830189847434650461B6841
:101F900002219847013428002B0001359F42E4DCE0
:101FA000874204DD4346391A1B6830189847F619F2
:101FB000013E33780D3B5A42534142461374E0BC14
:101FC000BA46B146A846F0BD80450010F0B5574668
:101FD0004546DE464E46D023E0B51B061C68354B11
:101FE00083B007000D00180001A990469A4602F040
:101FF00027FA8146002807D1019B9C4204D0504615
:1020000002F02EFA012399466B1C03D1380002F02E
:10201000D7F90500284B1C68002C2FD00A23274E27
:102020009B4602E0E468002C28D02268002AF9D000
:102030003368002B01D0A342F4D1637C002B27D05E
:102040002A0039002000FFF771FF4346002BE9D03A
:102050006B465A461A71637C002B1DD0237C002BE3
:1020600023D00121236801A898476B461B790D3BBB
:102070005A4253412374E468002CD6D14B46002BBE
:102080000FD103B0F0BCBB46B246A946A046F0BD96
:10209000290038009047D8E70121236801A8984714
:1020A000C0E7504602F0BCF9EBE702210448236880
:1020B0009847DAE730030020480B00204C0B002043
:1020C0008045001010B582B06B4604000022D81D78
:1020D00001210470FFF77AFF200002B010BDC04656
:1020E00070B5040002F06CF9012201000500200027
:1020F000FFF76CFF084B1C68002C06D06368002BB0
:1021000005D09847E468002CF8D1280070BDE46839
:10211000002CF3D1F9E7C046480B00200D4A1368A4
:10212000002B13D0834202D109E0984208D01A0054
:10213000DB68002BF9D1002900D0D06070471A006D
:102140000029FBD1DB68D360C160F7E70029F5D037
:102150001060F3E7480B002010B500F045F800F0E0
:1021600095F910BDF0B50D1E15DD0E4B0D271A6843
:102170000D4B4519D31859424B410C495B005E5E2B
:1021800020210478A64207D093691942FCD101307E
:102190001460A842F5D1F0BD93691942FCD11760D3
:1021A000F2E7C0460C1200200080FCBF081200209D
:1021B00030B504000D1E12DD00201021094B013C3A
:1021C0001A689369194208D1013093691942FCD108
:1021D000136823548542F4D130BD0028FCD103207C
:1021E0004042F9E70C120020E12110B50B4B0C48DE
:1021F0001B780C4B49021B780B4B1860FEF784F9D7
:1022000002210020FEF79EF802210120FEF79AF835
:1022100001210648FFF782FF10BDC0463448001078
:1022200000400340384800100C120020E00200205B
:102230007047C0460022014B1A70704715120020EB
:102240004B790020FF2B0BD18B79002B08D1CB7958
:10225000012B05D1082A03D98A78024B09301A705C
:102260007047C046151200200120704701207047BA
:1022700070B5144A4B79087912781B020343002089
:102280009A4200D070BD4B78012B08D0022BF9D1B7
:10229000002064220021FFF7D3FA0120F2E7CA7878
:1022A0008C78120205001443D20502D5620A9340CD
:1022B0001D000548FFF712FD7F2103002140280083
:1022C0009847C046151200205542000001230370B4
:1022D00000487047C445001048780B788A7800029F
:1022E0001843120410439622CB7810B51B06034303
:1022F000D200934200D010BD0348FFF7EFFC00214D
:10230000030008009847C0465542000070B5184CBD
:1023100082B006000D00200001A902F091F800280B
:1023200008D1D0231B061B68019A9A421CD02000BA
:1023300002F096F8002001F08DFB002807D103255C
:102340006D42200002F06CF8280002B070BD002041
:1023500001F09AFB0028F2D02A003100002001F0A1
:10236000A1FB051EEBD0ECE703256D42ECE7C04670
:10237000F0110020F0B5DE464F464646C0B5334B5F
:1023800082B081460D00180001A99B4602F058F862
:10239000002808D1D0231B061B68019A9A424FD00F
:1023A000584602F05DF8002001F054FB00283FD0B1
:1023B0000024002D41DD264E11E04B460020191966
:1023C00001F0FCFB804600F0B9FC002001F0A4FB0A
:1023D000FEF740FD306071604444AC422DDA0020CD
:1023E00001F008FC2F1B0200B84200DD3A00002A71
:1023F000E3D100F0A3FC002001F08EFB002001F0EF
:1024000029FB002819D0002001F0F4FB0028E4D1BA
:10241000FEF720FD326873680F00002184460D48E6
:1024200012184B419F4208D8D7D19445D5D904E022
:1024300000200021064B18605960584601F0F0FF5B
:1024400002B0E0BCBB46B146A846F0BDF01100208A
:102450005004002020A107001F2010B5FFF78CFAC0
:10246000FA200021800010BD10B5074C002120008B
:1024700001F0E6FF002800D110BD00F05FFC200055
:1024800001F0CEFFF8E7C046F011002070B51E4BFA
:1024900084B01B7801F080FD1F201C49FFF77CFAF7
:1024A00001211F20FFF756FA1948FEF7C9FDFEF774
:1024B000D7FA0600FEF7CEFCFA2204000D00002336
:1024C000920012196B41994214D811D00121029146
:1024D000002101910F4930000091FEF7C5FA040078
:1024E000631E9C41E4B2002808D1200004B070BDF6
:1024F0009042EBD901225242D317E7E70121064867
:10250000FFF70CFEF1E7C0463C48001069240010BC
:10251000F011002059240010F402002000487047F8
:1025200090460010004870473C46001030B5002827
:1025300006D1C1241148124BA4004380048030BD51
:10254000052819D80F4B8000C5580C480023811C62
:1025500004E001330A800231132B0AD0EA5CDCB2BA
:10256000002AF6D1C0230134E4B264009B001C436E
:10257000E4E7CA24A400E1E70020E0E7200B002004
:1025800009040000A44600109823F0B54546DE4635
:1025900057464E46424AE0B5D358802498461D001F
:1025A000102385B00393434664022540234214D090
:1025B0000121392000223B4B250019545971473124
:1025C0005A541A7500200132374901F029F8802247
:1025D000364B92021A65364B03934346DB060DD405
:1025E000802342465B011A4238D1454552D105B09D
:1025F000F0BCBB46B246A946A046F0BD284B9F6D35
:102600009A46002F24D0294B002501249B4603E045
:1026100064000135202D1BD02742F9D05346DB6DD5
:102620005B46682601229C656B085E433423914615
:10263000AA435343F6181B4B9C466644300000F0F7
:102640003DFA00281AD1A74301356400002FE1D1DB
:10265000802342465B01039D1A42C6D000221549E1
:1026600000200A700E491D430A600132012100F06A
:1026700067FF80220D4B12031A65B6E74B46F269DD
:10268000317900200093002300F0F2FF300000F0C9
:10269000E9F9D8E7414608486940FEF735FFC046EA
:1026A00000001150500B002000001050003011505D
:1026B0001000010012120020BC46001010B50121CC
:1026C0000520FFF747F910BD094B10B5012219701D
:1026D000392100230748425442714732835403751D
:1026E000002200213430013300F068FA10BDC046EA
:1026F00012120020500B00208022024B5202DA649A
:102700007047C0460020115070B5050000F082F9F6
:1027100005201C49FFF740F9D0221B4C0021200066
:10272000D200FFF7F7FB0022184B19491A70194B1A
:1027300040201960352601231749E3706371E06278
:10274000E1600A60A3554C36FF36268700262066D6
:102750002430265411491248A26021612370E28678
:1027600020640260E2633432A3540E4A616413644D
:1027700080239B05D36490230B492800D150FFF799
:10278000BBFF70BD89250010500B002012120020E5
:1027900080011050D811002084001050000110500A
:1027A0008000105000001150101001000B785B06E3
:1027B00002D14B78052B09D0012139200022064B8C
:1027C0005971195447311A755A547047034B1A7886
:1027D000034B1A60F0E7C046500B00201212002095
:1027E00000001150F8B54746CE46072380B548791A
:1027F000CC780A7903408F78A4071B021343A20FF9
:10280000944614007F207AB29146682134223840E1
:10281000FE094143724352184946C9433C4DC90F12
:10282000AA18D17041424141177156709070517190
:10283000012C5FD0402B61D8342268217243414380
:102840005218AA181100674630310F704946D362FA
:1028500000293EDB2F4FC100BC4600276144D160F8
:102860000F6000283ED02C4FC100BC4661449160EF
:1028700068272A4A4743116890463422BC4672436F
:102880006244AA181161402B00D240233F22CB188A
:10289000134201D09343403342461360204B6822D9
:1028A00059403423A4060C43A021734342439B1890
:1028B000EB189B6809060C431C6034235E433433D9
:1028C0005843673B3618AB550120C0BCB946B046EB
:1028D000F8BD144FC100BC4600276144D1600F60B1
:1028E00000280FD1342300227343EB189A600E4A5C
:1028F0001A61E2E78022D20093429DD319000B486F
:10290000FEF702FE064FC100BC4661449160AFE78E
:10291000500B00208400105004001050D8110020EB
:10292000000010508000105000011050D0460010E0
:1029300010B50C00342011001A00E30958437F231E
:10294000234068245C43044B0019C018012300F0A5
:1029500035F9012010BDC046500B002070B57F2511
:10296000342068230D40CC096B4360430C4EC018E3
:1029700030188378002B05D143785A425341094AD5
:102980000133936680220849120100F075F8342162
:1029900001234C4334314D4364193419237570BD00
:1029A000500B002000201150FFF7FFFF70B57F256E
:1029B000342068230D40CC096B4360430C4EC01893
:1029C00030188378002B05D143785A425341094A85
:1029D000013393660022084900F04EF834210023A9
:1029E0004C4334314D4364193419237570BDC046CE
:1029F000500B002000301150FFF7FFFF034B800009
:102A0000C25810B50248FEF77FFDC04608030020FB
:102A1000F846001080220E4B520410B51A600D4B80
:102A20000D491A6010008B689843FBD10B4C9C2217
:102A300000212000FFF76EFA802200215201084891
:102A4000FFF768FA092363670333A36710BDC04625
:102A500000E0004000F0004000C0004000001150C5
:102A600000001050002300213222838281548361B0
:102A7000C36103628362704710B5C368002901D047
:102A80001C682140002A11D08024E4001143224216
:102A90000CD01A6822420BD1074A0A401A60FFE79D
:102AA000FFE7FFE7FFE7FFE7FFE7C368196010BD37
:102AB00081784078FFF7A2FFFFFBFFFFF8B5467D66
:102AC0000400002E00D168E0C368C0781D68AD0521
:102AD000AD0D002843D1E369E918E161A269551AF7
:102AE000402D2ED86B189B1A5F427B412427DBB206
:102AF0002562E3558A424DD34AD0002823D0802254
:102B0000D2002A436179002902D08020800102434B
:102B1000012041406171002B02D08023DB011A4368
:102B2000E1680B685B053DD4204B13400B60FFE769
:102B3000FFE7FFE7FFE7FFE7FFE70020E3681A6032
:102B4000F8BD4025CEE7A36A2A009C46206961446F
:102B5000FFF7E6F984221202E35D2A43D2E7E26935
:102B6000A36A94466344180021692A00FFF7D8F944
:102B7000E369E078E918E1610028AFD0236A9D425B
:102B8000ACD20023012223622433A161E254D7E7AF
:102B90003000D5E70648FEF7B7FC8178054A0648BD
:102BA000FEF7B2FCA1786078FFF728FFFFFBFFFF7C
:102BB00044470010080300201847001070B50400B7
:102BC000002B49D0437D002B03D000230375322016
:102BD00023540023A261E361151C402A31D801234C
:102BE000ADB2521B637553425A412426252300205F
:102BF000D2B22562A162A255E054E378002B22D024
:102C00008023DB002B436179002902D080208001E2
:102C10000343012041406171002A02D08022D20189
:102C20001343E1680A68520519D40F4A1A400A6032
:102C3000FFE7FFE7FFE7FFE7FFE7FFE7E268136073
:102C400070BD4025CBE72A002069FFF769F984238E
:102C50001B02A25D2B43D6E7FFF730FFF0E7A17818
:102C60006078FFF7CBFEC046FFFBFFFF024B5878B2
:102C7000431E9841C0B27047A4090020024B187847
:102C80004007C00F7047C046A4090020F8B537229E
:102C900000212148FFF73EF9204C2000FEF7D0F933
:102CA0001F4B1C601F4C20001830FEF7D7F9200086
:102CB00001F070FB1C4B1D4E1D4D1C60002E04D0FE
:102CC0002800FFF703FB1B4B186000242B78002E15
:102CD00019D0194E174F9C420FD319D13300984782
:102CE00001342B78E4B2A342F5D20020FFF70CFDAB
:102CF0000020FFF7E3FC0120F8BDE3003A681B1B4E
:102D00009B009B58EBE700F083FF2B78002BECD067
:102D100000231B68FFDEC046A40900205C090020D8
:102D2000DC09002010030020E0090020CD22001063
:102D30001012002074060020113C0010F0B5DE4691
:102D400057464E464546E0B58BB001F035F90028B0
:102D500000D123E1B34B07AF9A46B34B9B46534692
:102D60001D68AA69EFF3108172B61368002BFCD0BE
:102D7000BFF35F8FE9612800390001F079F9AA6992
:102D80000400EB69BFF35F8F0021116083F31088AB
:102D9000002800D102E17B78082BE0D85A469B003E
:102DA000D3589F467B68002BD9D0B8689847D6E7A0
:102DB0007F2239799D4B0A405400C8091B191B1802
:102DC0001800012520304479AC434471447903351F
:102DD000AC434471002A00D1E7E0954ADB7C002A2D
:102DE00006D0944A1278934200D26FE19B1ADBB26C
:102DF000002B00D0D2E0904C7A793878BB68A0479D
:102E0000ADE78A4B0126984642461B7800203343A3
:102E100013703B78994600F093FD60233D792B4079
:102E2000602B0DD0402B00D1DBE0ED06ED0E012D27
:102E300000D156E1022D00D112E1002D00D1E2E0D7
:102E400038780021FFF78AFD80213878FFF786FD6A
:102E500085E77A4B002B82D000E000BF7FE7784BFC
:102E6000002B00D17BE7714B18780007C00F00E002
:102E700000BF74E76F4D6E4A00242B78002A00D102
:102E800099E0704EA34209D8A34200D096E00134E5
:102E9000E4B29C4200D962E7A342F5D93168E2006E
:102EA0008C46121B920062449269002AEFD0387857
:102EB000904701342B78E4B29C42E3D94FE73722A4
:102EC00000215A483E78FFF725F81022FF215E487E
:102ED000FFF720F855481222FF211330FFF71AF8A8
:102EE00000F024FD534D524A00242B78002A00D1D3
:102EF00070E0564A9046534A9146A34245D866D15F
:102F000043463000984701342B78E4B2A342F4D210
:102F10004F4B002B00D122E700E000BF1FE7434BDF
:102F200037229846002118003E78FEF7F3FF43460B
:102F30001022D81CFF21FEF7EDFF40461222FF2190
:102F40001330FEF7E7FF00F0F1FC3A4D384A002459
:102F50002B78002A35D03B4A91469C420CD336D17F
:102F60003A4B3000984701342B78E4B2A342F4D2B4
:102F700042463B799370F2E64A461268E300944673
:102F80001B1B9B0063445B68EBE74A461268E30047
:102F900094461B1B9B0063445B68B2E70BB0F0BC1C
:102FA000BB46B246A946A046F0BD7A793878BB68E0
:102FB00000F0DAFCD3E6002B00D1D0E600239B69B9
:102FC000FFDE300000F060FE2B78002BD0D0002315
:102FD0005B68FFDE300000F057FE2B78002B97D0A7
:102FE000F5E71C4B002B00D12AE71B48002801D035
:102FF00000F0A6FC484608A900E000BF0400002C31
:1030000000D0ACE61CE7202B00D19BE0002B00D0C9
:1030100016E77B79092B00D912E7104A9B00D35899
:103020009F46C046E009002068470010A409002020
:10303000CD22001010120020453E001000000000BC
:103040000000000074060020A7090020893C001041
:103050000000000000000000000000008C4700108D
:103060007F22397A0A400292082A00D9E8E6C80984
:103070000190002B00D182E0002453000293019ABA
:10308000029B94464344C94A6344DB7C002A06D031
:10309000C74A1278934200D200E19B1ADBB2002BA0
:1030A00000D0F2E0C348C44D00F04AFC4846EB684B
:1030B00008A99847002800D1E7E060223B791A422E
:1030C00000D04CE6002000F03BFC48E6DA00D31AC2
:1030D000BA4A9B001268D318002B00D15EE75C69E6
:1030E0008AE63B7A0F2B00D9AAE6B04A4344DB7844
:1030F000002A05D0AE4A127893425ED39B1ADBB207
:10310000002B00D09CE6AB48AB4C00F019FC4846C5
:10311000E36808A99847002800D020E66022110043
:103120003B7919401A4200D08AE67B790A2B00D0FD
:1031300086E606AB9A1C11700123484608A900F0E8
:1031400097FB0CE63B7A0F2B00D979E6974A43446C
:10315000DB78002A06D0964A1278934200D2C7E064
:103160009B1ADBB2002B00D06AE69248924C00F02A
:10317000E7FBE368484608A9984704003FE77B79E6
:103180000393012B00D19DE0032B00D190E0002B95
:1031900000D055E65300019A029394464344634499
:1031A00020335B7906AA9B07DB0F02321380484667
:1031B000022308A900F05CFB61E7804ADC00E31A07
:1031C00014689B00E418002C00D139E620699CE7C4
:1031D000FB88012B00D033E6434608221B7893433B
:1031E0004246484608A9137000F02AFBB7E543465B
:1031F0000220197806AB9A1C8B0689080140DB0F68
:103200000B4313804846022308A900F031FBA6E5D2
:103210004346BA7903925B78002B02D1002A00D092
:1032200084E04346039A484608A95A7000F008FB18
:1032300095E5434606AA5B7802321370484601239F
:1032400008A900F015FB8AE5FB88B8791B0A0F2B4B
:1032500000D9F5E55A4A9B00D3589F4608A800F0CC
:1032600075FB4846B979FFF72FFA434602221B78CF
:1032700013434246137072E5FB88012B00D0DFE553
:10328000434608221B781343AAE760223B791A427F
:1032900000D0B4E6002000F053FBB0E6474ADD0062
:1032A000EB1A15689B00ED18002DEED02869FBE69F
:1032B000FB88002B27D053000293484608A900F052
:1032C000BFFADCE6FB88002BF5D14846FFF76EFB22
:1032D000019A029B94465B0002934344634420336B
:1032E0005A790399AA435A715A798A435A71E4E781
:1032F000324ADC00E31A14689B00E418002C00D169
:103300009EE5206933E74846FFF728FB019A022132
:103310009446029B5B0002934344634420335A79F2
:103320000A435A715A7916435E71C6E7501EC0B2FD
:10333000FFF7F8F8002800D182E54378022B00D08F
:103340007EE50121C2790500931152110B400A401C
:1033500012015B011343424612782F318A43134313
:1033600042461370C37882781B021343C318093591
:103370000493049BAB4200D8CFE000236A78029309
:103380000B2A04D12B780295EB181D005A78042AD9
:1033900000D055E5049B054A5B1B9BB20193044B8F
:1033A00000241B78002A1DD129E0C046CD22001040
:1033B00010120020993D0010F44700107406002000
:1033C000B44700109C4226D1574B29004846019A29
:1033D0009847002822D1554B01341B78E4B2A34210
:1033E00000D22DE59C42EDD2514B1B680593059A06
:1033F000E30094461B1B9B0063449B68E5E72900A0
:103400004846019A00F052FC061E08D1474B1B7833
:10341000002B00D114E500239B68FFDE0600082E78
:1034200000D80DE5019BB34200D209E54346AA78D6
:103430009B18D978FF2900D002E5DC70029B002B95
:1034400014D018009B78934200D0F9E401796A798E
:10345000914200D0F4E4C278012A07D90433013A3A
:10346000434418002100D2B2FEF754FD7F212A0008
:1034700000238C465178052907D161469078014098
:10348000490041441331C0090C5411785B189BB2B8
:103490005218B342EED3254BAD191B78A34200D38B
:1034A00067E7CDE4234B002B00D1C9E400E000BF67
:1034B000040006AB9D1C0222A11C2800FEF730FD73
:1034C000220048462B8808A900F0D2F9002800D035
:1034D00045E4B5E4184B002B00D1B1E400E000BF97
:1034E000021E00D1ACE44846137808A900F0C0F9E8
:1034F000ECE73989FFF71AF8021EF4D1A0E4FFF7D0
:1035000011F8041ED5D19BE4FFF708F8122302003E
:1035100008A9484600F0ACF9D8E7084B002B00D1C9
:103520007FE600E000BF7CE6AD3C001010120020FA
:1035300074060020000000000000000000000000F1
:1035400030B585B005000C000C22002101A8FEF763
:10355000E1FC6B461D715C71042C4BD005D8022C2C
:1035600030D0032C15D105B030BD052C11D12A4B1C
:103570001A78D207F7D504211A788A431A70274B94
:103580001C68A269EFF3108172B61368002B09D191
:10359000FBE7224B1C68A269EFF3108172B6136837
:1035A000002BFCD0BFF35F8FE161200001A900F088
:1035B00031FEA269E369BFF35F8F0021116083F3DD
:1035C0001088D0E70121144B1A788A431A701A78B0
:1035D0000331A2431A7000225A701A788A431A7073
:1035E0000E4B1C68A269EFF3108172B61368002BB2
:1035F000D8D1FBE7084B1A78D207B4D504211A7842
:103600000A431A70054B1C68A269EFF3108172B669
:103610001368002BC6D1FBE7A4090020E0090020B5
:10362000002330B585B001AD6B80287006330822C9
:1036300002A86B70FEF774FC0C4B1C68A269EFF3D8
:10364000108372B611680029FCD0BFF35F8FE3616D
:103650002900200000F0DEFDA269E369BFF35F8F5F
:103660000021116083F3108805B030BDE00900200F
:10367000F0B5C646804600B584B001AC0F00160018
:103680000021082220001D00FEF744FC4346237061
:10369000072363700F4B65711D682771A660AA69C7
:1036A000EFF3108372B611680029FCD0BFF35F8F6F
:1036B000EB612100280000F0ADFDAA69EB69BFF3C2
:1036C0005F8F0021116083F3108804B080BCB8467E
:1036D000F0BDC046E0090020F8B54746D64680B5A3
:1036E0009846089B06000C00171E9A4621D000251C
:1036F00006E05246137023780135E418BD4218DA0B
:103700006378052B17D1E1788907890F414512D1DC
:1037100021003000FFF766F800280CD0A378DA0902
:10372000012AE6D1099A013513702378E418BD42C5
:10373000E6DB012000E00020C0BCBA46B046F8BD80
:1037400010B5FFF74FF810BD70B57F240C40630033
:10375000144CC909E418641820346379DB07DD0FC1
:10376000002B18D163795B0701D5280070BD0121BA
:103770000D4E4942306800F06BFE6379DB07DD0FC8
:10378000002B0AD163795B0708D4042263790125F1
:103790001343637102E00025E7E70025306800F07D
:1037A0003FFEE2E7A4090020DC09002070B50C0010
:1037B00001210F4D4942286800F04AFE7F21214037
:1037C0004B000C49E409C918091920314B79002430
:1037D000DB0708D44B795B07DC0F002B03DA0422EC
:1037E0004B7993434B71286800F01AFE200070BD9E
:1037F000DC090020A409002070B57F250F4C0D4086
:103800006D0064190600C809241820346579002069
:10381000ED0700D570BD0125607928436071300047
:10382000FFF786F80028F5D101226379934363718D
:103830006379033293436371ECE7C046A409002027
:1038400070B50A4E0500300008220C00FEF768FB38
:1038500000237F21F3602278B36091425B4128000E
:10386000D90100220023FFF763F870BD480900204A
:10387000F8B5CE46474691462A4E80B50822070045
:1038800030000D009846FEF74BFB4B46B36000231B
:10389000F381EC79A97924020C43231C444500D917
:1038A00043469AB29046B381002C13D0002A1FD011
:1038B0004B46002B34D0131C402A1FD89BB298468D
:1038C00033787F2B20D80021174A43463800FFF772
:1038D0002FF809E07F222B7838009A4264410023B8
:1038E0000022E101FFF724F8C0BCB946B046F8BD9C
:1038F00033787F2B11D980210022E6E740239BB249
:10390000984633787F2BDED9074C42464946200043
:10391000FEF706FB80212200D7E700210022D4E732
:103920000020E1E7480900206409002010B51422B6
:1039300000210248FEF7EEFA10BDC04648090020FB
:10394000014B18617047C0464809002010B5054C6E
:10395000010008222000FEF7E3FA0023A360E360E1
:1039600010BDC04648090020F8B5374D1C002B7823
:103970000600DA09C9098A420CD00027002C01D0C0
:103980003800F8BD314B0137002BF9D02900FEF784
:103990000DFFF5E77F2B06D8A868002838D0220055
:1039A0002B49FEF7BDFAAB68EA8919191219EB88A1
:1039B00092B2EA81A960934215D03F2C13D9AC8909
:1039C000A01A071C80B240282ED82B78BFB27F2BBC
:1039D0002CD80021A24234D01D4A3B003000FEF713
:1039E000A7FF0700CCE72B69002B04D0290030008B
:1039F000984700280ED07F2200212B7830009A4271
:103A0000494100230022C901FEF792FF0700B7E7F2
:103A10000027B5E700213000FEF7A0FF802130002D
:103A2000FEF79CFF0127ABE74027CEE7A24207D075
:103A3000074C3A002000FEF773FA80212200CCE701
:103A400080210022C9E7C04648090020AD270010A8
:103A50006409002010B50400FFF708F9002801D11F
:103A6000002010BDFFF70AF90028F9D16000041901
:103A7000230104481C1B2401041901202379184048
:103A8000EFE7C0467806002043001B1810B5180168
:103A9000C01A0001024B1030C01800F0CFFA10BD60
:103AA00078060020F0B5440020180401241A2401EF
:103AB0002600C646174F1036F61900B5300092B2F0
:103AC00000F02AFB0500300000F0C4FA3F2803D8BC
:103AD000280080BCB846F0BD3B190020D978984634
:103AE000FFF732FE0028F3D0300000F0B3FA3F2891
:103AF0000AD994239B00E2184346D219D9780020B2
:103B00004023FFF779FEE3E743460020D978FFF72B
:103B10004DFEDDE778060020F8B54746CE4680B575
:103B200047003B181C01E41A2401234B2600984649
:103B3000283646440500300000F080FA002804D101
:103B40000020C0BCB946B046F8BDA146C1444B46B2
:103B500000209978FFF7F8FD0028F1D0A4239B00FE
:103B60009C466444444430004022210000F0D4FAD2
:103B7000061E16D0FFF77AF8002812D0FFF77EF85D
:103B800000280ED14B461B79DB070AD54B46220095
:103B9000997800203300FFF72FFE0028D0D03000A6
:103BA000CFE77D192B015D1B2D014544A97800202D
:103BB000FFF7FCFDC4E7C0467806002043001B1851
:103BC00070B51C01E41A2401094B2834E4180500DF
:103BD00092B2200000F060FB0600200000F02EFAF8
:103BE0003F2801D8300070BD2800FFF795FFF9E7A6
:103BF0007806002043001B1810B51801C01A0001F8
:103C0000024B2830C01800F025FA10BD78060020BD
:103C1000B42270B51A4C82B0002120009200FEF749
:103C200079F9FF236371174B8025E3800123002678
:103C30002100200023816D00073323732A004031C7
:103C40000096073B103000F0BDF921002000413103
:103C50002A00FF3101230096283000F0B3F99023A9
:103C60009B00E5182800FDF7EBF992239B006562A5
:103C7000E5182800FDF7E4F9E56302B070BDC04621
:103C80007806002000C2FFFF10B5074C0522002176
:103C90002000FEF73FF92000103000F07BFB2000F1
:103CA000283000F077FB10BD78060020F0B54B7986
:103CB000060083B0022B02D18B79022B03D00025A2
:103CC000280003B0F0BDCB79062BF8D82F4FBB7876
:103CD000002BF4D18B7809253B700C780C19637894
:103CE000242B0BD1082A02D80FE0AA420DD3237847
:103CF000E418ED186378ADB2242BF6D0052B20D054
:103D0000042B02D163790A2B2ED0214C200000F025
:103D1000A1F93F28D4D92600103E0020F178FFF702
:103D200013FD0028CCD0200000F094F93F2816D9CC
:103D300090239B00E218F17840230020FFF75CFD00
:103D4000BEE721003000FFF7FBFC0028B7D0A378C6
:103D50007B702378ED18E4186378ADB2D0E7F17882
:103D60000020FFF723FDABE70A4B277801930133CF
:103D70000093022202233000E119FFF7ADFC002876
:103D80009DD00E35ED19ADB2BFE7C04678060020D4
:103D9000880600207A06002060230A7870B5134058
:103DA0000024202B0BD10B4A4B790D7910781B0284
:103DB0002B43984203D14B780134202B01D02000B3
:103DC00070BD054B002BFAD00020911DFEF784FA40
:103DD000F5E7C04678060020D922001060230A7853
:103DE00070B513400024202B11D1144A4B790E7961
:103DF00015781B0233439D4209D14B78212B08D8FB
:103E00001F2B04D907230632FFF732FD01242000BF
:103E100070BD222BFBD1CD788B782D021D431571FF
:103E2000FFF70EFD064B0124002BF0D029006A0895
:103E300000202240214000E000BFE8E77806002093
:103E400000000000F0B546464F46D646C0B54D4E80
:103E50009946F37880460D008B4257D14B46002B94
:103E600000D188E0484B002B00D175E094239B00E3
:103E7000F418A2463700CA4410372100380000F079
:103E8000C9F97379FF2B02D02178994243D00134CC
:103E90005445F2D13D4B002B04D0380000F0CEF851
:103EA00000286BD1380000F0D5F83F2837D8103FF4
:103EB000BB789D4206D001242000E0BCBA46B14642
:103EC000A846F0BD324B002B02D0002000E000BF1E
:103ED0000020FFF721FE0028EDD12E4D280000F034
:103EE000ADF80028E7D14B46002BE4D09B06E2D189
:103EF000283D4046A978FFF727FC041EDBD00023AD
:103F000000224046A978FFF777FCD5E7B3788B42CB
:103F1000D8D00024D0E7002000E000BFB7E73C0085
:103F2000103C0020E178FFF70FFC002812D0380089
:103F300000F090F83F2809D990239B00FA18002040
:103F40004023E178FFF758FCA378B2E70020E1783E
:103F5000FFF72CFCA378ACE794239B00F418A2464F
:103F600010363700CA4421003800013400F052F9FD
:103F70005445F8D18EE7103637008BE7002000E07B
:103F800000BF8FE77806002000000000000000005E
:103F900000000000A006002070B5064D2C78002C13
:103FA00001D0200070BDFEF771FE0028F9D001237A
:103FB0002B70F6E711120020014B18787047C046AD
:103FC00011120020F0B5C64600B5140006AA1E0066
:103FD0001378802205000F009846120294422BD8D5
:103FE000406900281AD00121494200F031FA4346C5
:103FF000AC806400A4B22B72631EAB81002368699D
:104000006442EB812F60EE806C812B82002811D0FE
:1040100000F006FA012080BCB846F0BDAC80640018
:10402000A4B22B72631E6442E8812960EE80AB81EA
:104030006C8128820120EEE70020ECE710B5C489EE
:10404000018A0200601A80B28C4202D25389C01ADF
:1040500080B210BD10B5C489018A8388621A92B2F9
:104060008C4202D24089121A92B2981A80B210BDC4
:10407000F8B5040040690E00002803D00121494230
:1040800000F0E6F9E189228A8FB28D1A93B2ADB2BF
:10409000914202D26289AD1AADB2A288A189AA4228
:1040A00005D2B81A88422BDC80B215002082002D80
:1040B0002ED08B4206D961895B189BB29A4203D8F5
:1040C0009B1A9BB29A42FBD9E28821685343300085
:1040D000C918FDF725FF012501200126A189228AA3
:1040E00093B212188A4210DD62899B18ED18ADB2A6
:1040F00060692582002801D000F092F93000F8BDF7
:1041000060891018381A80B2CFE75D19ADB2EFE7B9
:1041100000200026E3E7C046F0B5C646040040692B
:104120008846170000B5002803D00121494200F05D
:104130008FF9E089218A82B2461A8BB2B6B28842E0
:1041400002D26189761AB6B2A588A089B54207D293
:10415000531B83422CDC9BB22E002382238A9BB20A
:10416000002E2CD03A1CB74227D896B2834202D9EF
:1041700061895B189BB29D4203D85B1B9BB29D4239
:10418000FBD99A193700E188AA422CDC0A0059436E
:10419000236872439C4640466144FDF7C1FE228A73
:1041A000A08993B2D21982420FDC9B199BB210E016
:1041B0006389EB18D31A9BB2CEE7321CD5E70027F0
:1041C000228A93B2D2198242EFDD62899B18F318DA
:1041D0009BB260692382002801D000F021F93000F1
:1041E00080BCB846F0BDED1AADB22A004A4359432F
:1041F000236840469C466144FDF792FEE388721BAB
:10420000180068435A4321684044FDF789FEA0899D
:10421000D6E7C046F8B5040040690E00002803D078
:104220000121494200F014F9E289218A95B2531A1A
:104230009BB2914202D962899B1A9BB2A2889A4290
:1042400026D0A1892B00A94206D26389EB189BB224
:104250009A4203D89B1A9BB29A42FBD9E288216802
:104260005343C8183100FDF75BFEA389AB420AD95E
:104270000135ADB260690127E581002801D000F069
:10428000CFF83800F8BD6389ED180135ADB2F1E71C
:10429000277A002FD5D1F4E7F8B54746CE4604007B
:1042A00080B515000F00002A52D04069002803D0C5
:1042B0000121494200F0CCF8E689237A208AA188BE
:1042C000B6B280B2002B38D1331A9BB2864202D2EA
:1042D00062899B1A9BB2CB1A1A1C9BB2AB4252D872
:1042E00093B298461D00E288A0893300864205DD1E
:1042F0006389F3189BB201E05B1A9BB28B42FBD23D
:10430000581988422ADC534321686A43C818390087
:10431000FDF706FEA38975199D421CDD6389F61819
:104320004644B6B26069E681002801D000F078F812
:104330004046C0BCB946B046F8BDA846E288A9428E
:10434000D2D26D1A554388467F19E0810D00CBE724
:1043500000239846ECE74644B6B2E3E7C91A89B2AF
:10436000894653432168C8184B4639005A43FDF724
:10437000D7FD4B46E188EA1A4A4359432068791829
:10438000FDF7CEFDC6E72A1C93B298461D00E288D1
:10439000AAE7C04610B50400406900280DD00121ED
:1043A000494200F055F800236069E3812382002828
:1043B00001D000F035F8012010BDE0812082FAE73D
:1043C00010B583070AD00300032102E001330B423A
:1043D00005D01A78002AF9D1181A10BD03001968FF
:1043E0000C4A0D4C8A188A4322420FD15968094A57
:1043F00004338A188A43224208D15968054A043393
:104400008A188A432242F1D000E001331A78002A48
:10441000FBD1E1E7FFFEFEFE80808080F8B5C0465C
:1044200001B40248844601BC604700BFE901002096
:1044300001B40248844601BC604700BF110200205D
:1044400001B40248844601BC604700BF0D01002052
:1044500001B40248844601BC604700BF51010020FE
:1044600001B40248844601BC604700BFC10000207F
:1044700048656C6C6F20576F726C640A0000000016
:1044800054686973206973206120746573742062B5
:10449000696E6172792E00004F6E2D626F617264D9
:1044A000204C45440000000009005250000000026A
:1044B0009844001006005250197CA0B680440010A9
:1044C0004E6F207370696E6C6F636B7320617265E1
:1044D00020617661696C61626C650000486172649C
:1044E0007761726520616C61726D20256420616C5A
:1044F000726561647920636C61696D6564000000B8
:104500000A2A2A2A2050414E4943202A2A2A0A00F0
:104510000A00000048617264206173736572740060
:1045200052656C6561736500626F6F74325F7732DC
:104530003571303830000000312E312E320000004D
:104540007069636F00000000746573740000000000
:104550004170722031312032303231000600525029
:10456000BBFF3CB64045001006005250E182887FF8
:104570002845001006005250D3F075422045001027
:104580000D0A00005541525420737464696E000096
:1045900055415254207374646F75740055415254E0
:1045A00020737464696E202F207374646F757400B7
:1045B0000600525053B4F4A19C450010080052501C
:1045C000920000003122001035220010412200101C
:1045D00071220010692200106D22001000000000FE
:1045E00055534220737464696E202F207374646F76
:1045F000757400000600525053B4F4A1E045001059
:104600005261737062657272792050690000000017
:104610005069636F0000000030303030303030308F
:104620003030303000000000426F6172642043443B
:1046300043000000526573657400000009025400D5
:10464000030100807D080B00020202000009040043
:1046500000010202000405240020010524010001DC
:104660000424020205240600010705810308001046
:1046700009040100020A00000007050202400000D0
:10468000070582024000000904020000FF00010546
:1046900012010002EF0201408A2E0A00000101020D
:1046A000030100000000000000460010104600104A
:1046B000184600102846001034460010556E6861F8
:1046C0006E646C65642049525120307825780A0068
:1046D00049736F6368726F6E6F757320774D617881
:1046E0005061636B657453697A6520256420746F2B
:1046F0006F206C61726765006570202564202573EA
:104700002077617320616C726561647920617661E4
:10471000696C61626C65000043616E277420636F91
:104720006E74696E75652078666572206F6E20699B
:104730006E61637469766520657020256420257339
:10474000000000005472616E7366657272656420C9
:104750006D6F72652064617461207468616E20659C
:1047600078706563746564005E2D00101E2F001064
:10477000BE2E0010742E00105E2E0010522E00105F
:10478000022E0010B02D0010A42D0010EE310010EC
:10479000D0310010402E001078320010402E001052
:1047A0005C32001048320010402E001032320010EF
:1047B00010320010402E001008350010FE3400109A
:1047C000F2340010402E0010402E0010D43400109F
:1047D000402E0010402E0010402E0010402E0010E1
:1047E000402E0010402E0010402E0010402E0010D1
:1047F000A4340010113C0010893C0010AD3C0010A6
:10480000DD3D0010993D0010453E00100000000005
:10481000A8440010B4440010B4020010A802001014
:104820009C0200105C4500109002001068450010CA
:1048300074450010B0450010BC450010F445001050
:1048400010B502680024EFF3108172B61368002BD4
:10485000FCD0BFF35F8F03797F2B0BD80368BFF3C6
:104860005F8F1C6081F3108820BF0268EFF3108116
:1048700072B6EBE7D0231B061B6803710368BFF316
:104880005F8F00221A6081F3108810BD030000685A
:10489000EFF3108C72B60268002AFCD0BFF35F8F72
:1048A00004229A56002A0BDB00290FD000200A6050
:1048B0001B68BFF35F8F00221A608CF3108870476B
:1048C000D0221206126801201A71F1E70020EFE7EA
:1048D000F0B5C64600B50C00804600F05DF8FA223F
:1048E00006000F00200000230021920000F05CF879
:1048F0008019794104000D008F4230D82DD0002658
:1049000043461A68EFF3108172B61368002BFCD08F
:10491000BFF35F8F43461B797F2B0ED843461B683E
:10492000BFF35F8F1E6081F310882000290000F024
:1049300043F80028E4D000200CE0D02342461B06B8
:104940001B6813711368BFF35F8F00221A6081F335
:104950001088012080BCB846F0BD8642CFD9012422
:104960006442E517CBE7C0460268EFF3108172B6E8
:104970001368002BFCD0BFF35F8FFF23037140BF90
:104980000368BFF35F8F00221A6081F310887047BD
:104990007047C0460000000001B40248844601BCD4
:1049A000604700BF550E001001B40248844601BCA8
:1049B000604700BF411E001001B40248844601BC9C
:1049C000604700BFB10C001010000000640200201E
:1049D0000000000050030020E00A0020000000005A
:1049E00000000000F00A00200000000000000000AD
:1049F00010000000000000000000010000000000A6
:104A000000000000000002000000000000000000A4
:104A10000000030000000000000000000000FF0094
:104A20000000000000B5486801318E46004770461E
:104A300009380149884700BDA11B00100000000093
:104A4000503300004C330000543300005233000058
:104A50004D5300004D430000533400004334000028
:104A60006521001000000000B121001000000000CE
:104A70000001000075230010000000000D2300104D
:104A80000000000000010000AC4500108C45001043
:104A9000E409002010000C000000000000000000ED
:104AA0000000000000000000000000000000000006
:104AB0000000000000000000051F0010CD1C0010C9
:0C4AC000951D0010751E0010ED02001086
:04000005100001E9FD
:00000001FF
